{
  "_format": "hh-sol-artifact-1",
  "contractName": "Voteasy",
  "sourceName": "contracts/Voting.sol",
  "abi": [
    {
      "anonymous": false,
      "inputs": [
        {
          "indexed": true,
          "internalType": "uint256",
          "name": "votingId",
          "type": "uint256"
        },
        {
          "indexed": true,
          "internalType": "uint256",
          "name": "candidateId",
          "type": "uint256"
        },
        {
          "indexed": false,
          "internalType": "string",
          "name": "name",
          "type": "string"
        }
      ],
      "name": "CandidateAdded",
      "type": "event"
    },
    {
      "anonymous": false,
      "inputs": [
        {
          "indexed": true,
          "internalType": "uint256",
          "name": "votingId",
          "type": "uint256"
        },
        {
          "indexed": true,
          "internalType": "uint256",
          "name": "candidateId",
          "type": "uint256"
        },
        {
          "indexed": false,
          "internalType": "address",
          "name": "voter",
          "type": "address"
        }
      ],
      "name": "VoteCast",
      "type": "event"
    },
    {
      "anonymous": false,
      "inputs": [
        {
          "indexed": true,
          "internalType": "uint256",
          "name": "id",
          "type": "uint256"
        },
        {
          "indexed": false,
          "internalType": "string",
          "name": "name",
          "type": "string"
        },
        {
          "indexed": false,
          "internalType": "uint256",
          "name": "startDate",
          "type": "uint256"
        },
        {
          "indexed": false,
          "internalType": "uint256",
          "name": "endDate",
          "type": "uint256"
        },
        {
          "indexed": false,
          "internalType": "enum Voteasy.Status",
          "name": "status",
          "type": "uint8"
        }
      ],
      "name": "VotingCreated",
      "type": "event"
    },
    {
      "anonymous": false,
      "inputs": [
        {
          "indexed": true,
          "internalType": "uint256",
          "name": "votingId",
          "type": "uint256"
        },
        {
          "indexed": false,
          "internalType": "enum Voteasy.Status",
          "name": "newStatus",
          "type": "uint8"
        }
      ],
      "name": "VotingStatusUpdated",
      "type": "event"
    },
    {
      "inputs": [
        {
          "internalType": "uint256",
          "name": "",
          "type": "uint256"
        },
        {
          "internalType": "uint256",
          "name": "",
          "type": "uint256"
        }
      ],
      "name": "candidates",
      "outputs": [
        {
          "internalType": "uint256",
          "name": "id",
          "type": "uint256"
        },
        {
          "internalType": "string",
          "name": "name",
          "type": "string"
        },
        {
          "internalType": "uint256",
          "name": "number",
          "type": "uint256"
        },
        {
          "internalType": "string",
          "name": "party",
          "type": "string"
        },
        {
          "internalType": "uint256",
          "name": "votes",
          "type": "uint256"
        }
      ],
      "stateMutability": "view",
      "type": "function"
    },
    {
      "inputs": [
        {
          "internalType": "string",
          "name": "_name",
          "type": "string"
        },
        {
          "internalType": "string",
          "name": "_description",
          "type": "string"
        },
        {
          "internalType": "uint256",
          "name": "_startDate",
          "type": "uint256"
        },
        {
          "internalType": "uint256",
          "name": "_endDate",
          "type": "uint256"
        },
        {
          "internalType": "string[]",
          "name": "_candidateNames",
          "type": "string[]"
        },
        {
          "internalType": "uint256[]",
          "name": "_candidateNumbers",
          "type": "uint256[]"
        },
        {
          "internalType": "string[]",
          "name": "_candidateParties",
          "type": "string[]"
        },
        {
          "internalType": "enum Voteasy.Status",
          "name": "_status",
          "type": "uint8"
        }
      ],
      "name": "createVoting",
      "outputs": [],
      "stateMutability": "nonpayable",
      "type": "function"
    },
    {
      "inputs": [],
      "name": "getAllVotings",
      "outputs": [
        {
          "components": [
            {
              "internalType": "uint256",
              "name": "id",
              "type": "uint256"
            },
            {
              "internalType": "string",
              "name": "name",
              "type": "string"
            },
            {
              "internalType": "string",
              "name": "description",
              "type": "string"
            },
            {
              "internalType": "uint256",
              "name": "startDate",
              "type": "uint256"
            },
            {
              "internalType": "uint256",
              "name": "endDate",
              "type": "uint256"
            },
            {
              "internalType": "enum Voteasy.Status",
              "name": "status",
              "type": "uint8"
            },
            {
              "internalType": "uint256",
              "name": "winnerIndex",
              "type": "uint256"
            }
          ],
          "internalType": "struct Voteasy.Voting[]",
          "name": "",
          "type": "tuple[]"
        }
      ],
      "stateMutability": "view",
      "type": "function"
    },
    {
      "inputs": [
        {
          "internalType": "uint256",
          "name": "_candidateId",
          "type": "uint256"
        },
        {
          "internalType": "uint256",
          "name": "_votingId",
          "type": "uint256"
        }
      ],
      "name": "getCandidate",
      "outputs": [
        {
          "internalType": "uint256",
          "name": "id",
          "type": "uint256"
        },
        {
          "internalType": "string",
          "name": "name",
          "type": "string"
        },
        {
          "internalType": "uint256",
          "name": "number",
          "type": "uint256"
        },
        {
          "internalType": "string",
          "name": "party",
          "type": "string"
        },
        {
          "internalType": "uint256",
          "name": "votes",
          "type": "uint256"
        }
      ],
      "stateMutability": "view",
      "type": "function"
    },
    {
      "inputs": [
        {
          "internalType": "uint256",
          "name": "_votingId",
          "type": "uint256"
        }
      ],
      "name": "getCandidatesByVoting",
      "outputs": [
        {
          "components": [
            {
              "internalType": "uint256",
              "name": "id",
              "type": "uint256"
            },
            {
              "internalType": "string",
              "name": "name",
              "type": "string"
            },
            {
              "internalType": "uint256",
              "name": "number",
              "type": "uint256"
            },
            {
              "internalType": "string",
              "name": "party",
              "type": "string"
            },
            {
              "internalType": "uint256",
              "name": "votes",
              "type": "uint256"
            }
          ],
          "internalType": "struct Voteasy.Candidate[]",
          "name": "",
          "type": "tuple[]"
        }
      ],
      "stateMutability": "view",
      "type": "function"
    },
    {
      "inputs": [
        {
          "internalType": "uint256",
          "name": "_votingId",
          "type": "uint256"
        }
      ],
      "name": "getVoting",
      "outputs": [
        {
          "internalType": "uint256",
          "name": "id",
          "type": "uint256"
        },
        {
          "internalType": "string",
          "name": "name",
          "type": "string"
        },
        {
          "internalType": "string",
          "name": "description",
          "type": "string"
        },
        {
          "internalType": "uint256",
          "name": "startDate",
          "type": "uint256"
        },
        {
          "internalType": "uint256",
          "name": "endDate",
          "type": "uint256"
        },
        {
          "internalType": "enum Voteasy.Status",
          "name": "status",
          "type": "uint8"
        },
        {
          "internalType": "uint256",
          "name": "winnerIndex",
          "type": "uint256"
        }
      ],
      "stateMutability": "view",
      "type": "function"
    },
    {
      "inputs": [
        {
          "internalType": "uint256",
          "name": "_votingId",
          "type": "uint256"
        }
      ],
      "name": "getWinner",
      "outputs": [
        {
          "internalType": "uint256",
          "name": "id",
          "type": "uint256"
        },
        {
          "internalType": "string",
          "name": "name",
          "type": "string"
        },
        {
          "internalType": "uint256",
          "name": "number",
          "type": "uint256"
        },
        {
          "internalType": "string",
          "name": "party",
          "type": "string"
        },
        {
          "internalType": "uint256",
          "name": "votes",
          "type": "uint256"
        }
      ],
      "stateMutability": "view",
      "type": "function"
    },
    {
      "inputs": [
        {
          "internalType": "uint256",
          "name": "",
          "type": "uint256"
        },
        {
          "internalType": "address",
          "name": "",
          "type": "address"
        }
      ],
      "name": "hasVoted",
      "outputs": [
        {
          "internalType": "bool",
          "name": "",
          "type": "bool"
        }
      ],
      "stateMutability": "view",
      "type": "function"
    },
    {
      "inputs": [
        {
          "internalType": "uint256",
          "name": "_votingId",
          "type": "uint256"
        },
        {
          "internalType": "enum Voteasy.Status",
          "name": "_newStatus",
          "type": "uint8"
        }
      ],
      "name": "updateVotingStatus",
      "outputs": [],
      "stateMutability": "nonpayable",
      "type": "function"
    },
    {
      "inputs": [
        {
          "internalType": "uint256",
          "name": "_votingId",
          "type": "uint256"
        },
        {
          "internalType": "uint256",
          "name": "_candidateId",
          "type": "uint256"
        }
      ],
      "name": "vote",
      "outputs": [],
      "stateMutability": "nonpayable",
      "type": "function"
    },
    {
      "inputs": [],
      "name": "votingCount",
      "outputs": [
        {
          "internalType": "uint256",
          "name": "",
          "type": "uint256"
        }
      ],
      "stateMutability": "view",
      "type": "function"
    },
    {
      "inputs": [
        {
          "internalType": "uint256",
          "name": "",
          "type": "uint256"
        }
      ],
      "name": "votings",
      "outputs": [
        {
          "internalType": "uint256",
          "name": "id",
          "type": "uint256"
        },
        {
          "internalType": "string",
          "name": "name",
          "type": "string"
        },
        {
          "internalType": "string",
          "name": "description",
          "type": "string"
        },
        {
          "internalType": "uint256",
          "name": "startDate",
          "type": "uint256"
        },
        {
          "internalType": "uint256",
          "name": "endDate",
          "type": "uint256"
        },
        {
          "internalType": "enum Voteasy.Status",
          "name": "status",
          "type": "uint8"
        },
        {
          "internalType": "uint256",
          "name": "winnerIndex",
          "type": "uint256"
        }
      ],
      "stateMutability": "view",
      "type": "function"
    }
  ],
  "bytecode": "0x6080604052348015600f57600080fd5b506131c68061001f6000396000f3fe608060405234801561001057600080fd5b50600436106100b45760003560e01c8063b33b28be11610071578063b33b28be146101f1578063b384abef1461020d578063b424ab8414610229578063b72c826314610247578063d87c6eef14610277578063e4c41bb414610293576100b4565b80633afc7282146100b95780634129b2c9146100ef57806343859632146101235780634bd46448146101535780637de1424214610187578063a598d03c146101bb575b600080fd5b6100d360048036038101906100ce9190611bd4565b6102b1565b6040516100e69796959493929190611d17565b60405180910390f35b61010960048036038101906101049190611bd4565b610477565b60405161011a959493929190611d94565b60405180910390f35b61013d60048036038101906101389190611e53565b6107c3565b60405161014a9190611eae565b60405180910390f35b61016d60048036038101906101689190611ec9565b6107f2565b60405161017e959493929190611d94565b60405180910390f35b6101a1600480360381019061019c9190611ec9565b6109ad565b6040516101b2959493929190611d94565b60405180910390f35b6101d560048036038101906101d09190611bd4565b610b10565b6040516101e89796959493929190611d17565b60405180910390f35b61020b6004803603810190610206919061220c565b610c6f565b005b61022760048036038101906102229190611ec9565b611008565b005b610231611380565b60405161023e919061234e565b60405180910390f35b610261600480360381019061025c9190611bd4565b611386565b60405161026e9190612501565b60405180910390f35b610291600480360381019061028c9190612523565b6115cc565b005b61029b6117ec565b6040516102a891906126d7565b60405180910390f35b60006060806000806000806000548810610300576040517f08c379a00000000000000000000000000000000000000000000000000000000081526004016102f790612745565b60405180910390fd5b6000600160008a8152602001908152602001600020905080600001548160010182600201836003015484600401548560050160009054906101000a900460ff16866006015485805461035190612794565b80601f016020809104026020016040519081016040528092919081815260200182805461037d90612794565b80156103ca5780601f1061039f576101008083540402835291602001916103ca565b820191906000526020600020905b8154815290600101906020018083116103ad57829003601f168201915b505050505095508480546103dd90612794565b80601f016020809104026020016040519081016040528092919081815260200182805461040990612794565b80156104565780601f1061042b57610100808354040283529160200191610456565b820191906000526020600020905b81548152906001019060200180831161043957829003601f168201915b50505050509450975097509750975097509750975050919395979092949650565b600060606000606060006002600381111561049557610494611ca0565b5b6001600088815260200190815260200160002060050160009054906101000a900460ff1660038111156104cb576104ca611ca0565b5b1461050b576040517f08c379a000000000000000000000000000000000000000000000000000000000815260040161050290612811565b60405180910390fd5b60038081111561051e5761051d611ca0565b5b6001600088815260200190815260200160002060050160009054906101000a900460ff16600381111561055457610553611ca0565b5b03610594576040517f08c379a000000000000000000000000000000000000000000000000000000000815260040161058b9061287d565b60405180910390fd5b6000600160008881526020019081526020016000206006015490507fffffffffffffffffffffffffffffffffffffffffffffffffffffffffffffffff8103610611576040517f08c379a0000000000000000000000000000000000000000000000000000000008152600401610608906128e9565b60405180910390fd5b600060026000898152602001908152602001600020828154811061063857610637612909565b5b90600052602060002090600502016040518060a00160405290816000820154815260200160018201805461066b90612794565b80601f016020809104026020016040519081016040528092919081815260200182805461069790612794565b80156106e45780601f106106b9576101008083540402835291602001916106e4565b820191906000526020600020905b8154815290600101906020018083116106c757829003601f168201915b505050505081526020016002820154815260200160038201805461070790612794565b80601f016020809104026020016040519081016040528092919081815260200182805461073390612794565b80156107805780601f1061075557610100808354040283529160200191610780565b820191906000526020600020905b81548152906001019060200180831161076357829003601f168201915b5050505050815260200160048201548152505090508060000151816020015182604001518360600151846080015196509650965096509650505091939590929450565b60036020528160005260406000206020528060005260406000206000915091509054906101000a900460ff1681565b600060606000606060008060026000888152602001908152602001600020888154811061082257610821612909565b5b90600052602060002090600502016040518060a00160405290816000820154815260200160018201805461085590612794565b80601f016020809104026020016040519081016040528092919081815260200182805461088190612794565b80156108ce5780601f106108a3576101008083540402835291602001916108ce565b820191906000526020600020905b8154815290600101906020018083116108b157829003601f168201915b50505050508152602001600282015481526020016003820180546108f190612794565b80601f016020809104026020016040519081016040528092919081815260200182805461091d90612794565b801561096a5780601f1061093f5761010080835404028352916020019161096a565b820191906000526020600020905b81548152906001019060200180831161094d57829003601f168201915b5050505050815260200160048201548152505090508060000151816020015182604001518360600151846080015195509550955095509550509295509295909350565b600260205281600052604060002081815481106109c957600080fd5b9060005260206000209060050201600091509150508060000154908060010180546109f390612794565b80601f0160208091040260200160405190810160405280929190818152602001828054610a1f90612794565b8015610a6c5780601f10610a4157610100808354040283529160200191610a6c565b820191906000526020600020905b815481529060010190602001808311610a4f57829003601f168201915b505050505090806002015490806003018054610a8790612794565b80601f0160208091040260200160405190810160405280929190818152602001828054610ab390612794565b8015610b005780601f10610ad557610100808354040283529160200191610b00565b820191906000526020600020905b815481529060010190602001808311610ae357829003601f168201915b5050505050908060040154905085565b6001602052806000526040600020600091509050806000015490806001018054610b3990612794565b80601f0160208091040260200160405190810160405280929190818152602001828054610b6590612794565b8015610bb25780601f10610b8757610100808354040283529160200191610bb2565b820191906000526020600020905b815481529060010190602001808311610b9557829003601f168201915b505050505090806002018054610bc790612794565b80601f0160208091040260200160405190810160405280929190818152602001828054610bf390612794565b8015610c405780601f10610c1557610100808354040283529160200191610c40565b820191906000526020600020905b815481529060010190602001808311610c2357829003601f168201915b5050505050908060030154908060040154908060050160009054906101000a900460ff16908060060154905087565b8585428211610cb3576040517f08c379a0000000000000000000000000000000000000000000000000000000008152600401610caa906129aa565b60405180910390fd5b818111610cf5576040517f08c379a0000000000000000000000000000000000000000000000000000000008152600401610cec90612a3c565b60405180910390fd5b6001865111610d39576040517f08c379a0000000000000000000000000000000000000000000000000000000008152600401610d3090612ace565b60405180910390fd5b6000806000815480929190610d4d90612b1d565b9190505590506040518060e001604052808281526020018c81526020018b81526020018a8152602001898152602001856003811115610d8f57610d8e611ca0565b5b81526020017fffffffffffffffffffffffffffffffffffffffffffffffffffffffffffffffff81525060016000838152602001908152602001600020600082015181600001556020820151816001019081610dea9190612d11565b506040820151816002019081610e009190612d11565b50606082015181600301556080820151816004015560a08201518160050160006101000a81548160ff02191690836003811115610e4057610e3f611ca0565b5b021790555060c0820151816006015590505060005b8751811015610fbc57600260008381526020019081526020016000206040518060a001604052808381526020018a8481518110610e9557610e94612909565b5b60200260200101518152602001898481518110610eb557610eb4612909565b5b60200260200101518152602001888481518110610ed557610ed4612909565b5b6020026020010151815260200160008152509080600181540180825580915050600190039060005260206000209060050201600090919091909150600082015181600001556020820151816001019081610f2f9190612d11565b50604082015181600201556060820151816003019081610f4f9190612d11565b5060808201518160040155505080827fed8911b3df733b7d5f75724158e54478ea12e30f49c9d31b5261879f5b76586f8a8481518110610f9257610f91612909565b5b6020026020010151604051610fa79190612de3565b60405180910390a38080600101915050610e55565b50807f6f98f23b59bb0f758cf55188a9ec8140880ae93d7bb0b1d2798d5c570043fa2a8c8b8b88604051610ff39493929190612e05565b60405180910390a25050505050505050505050565b816000600381111561101d5761101c611ca0565b5b6001600083815260200190815260200160002060050160009054906101000a900460ff16600381111561105357611052611ca0565b5b14611093576040517f08c379a000000000000000000000000000000000000000000000000000000000815260040161108a90612e9d565b60405180910390fd5b6003808111156110a6576110a5611ca0565b5b6001600083815260200190815260200160002060050160009054906101000a900460ff1660038111156110dc576110db611ca0565b5b0361111c576040517f08c379a00000000000000000000000000000000000000000000000000000000081526004016111139061287d565b60405180910390fd5b6003600084815260200190815260200160002060003373ffffffffffffffffffffffffffffffffffffffff1673ffffffffffffffffffffffffffffffffffffffff16815260200190815260200160002060009054906101000a900460ff16156111ba576040517f08c379a00000000000000000000000000000000000000000000000000000000081526004016111b190612f09565b60405180910390fd5b600160008481526020019081526020016000206003015442101580156111f6575060016000848152602001908152602001600020600401544211155b611235576040517f08c379a000000000000000000000000000000000000000000000000000000000815260040161122c90612f9b565b60405180910390fd5b6002600084815260200190815260200160002080549050821061128d576040517f08c379a000000000000000000000000000000000000000000000000000000000815260040161128490613007565b60405180910390fd5b6002600084815260200190815260200160002082815481106112b2576112b1612909565b5b906000526020600020906005020160040160008154809291906112d490612b1d565b919050555060016003600085815260200190815260200160002060003373ffffffffffffffffffffffffffffffffffffffff1673ffffffffffffffffffffffffffffffffffffffff16815260200190815260200160002060006101000a81548160ff02191690831515021790555081837f7fe1d4e6b34e228b5dc059fcdc037c71b216fb2417f47c171e505144a5e4f5fc336040516113739190613036565b60405180910390a3505050565b60005481565b60606000600260008481526020019081526020016000208054905067ffffffffffffffff8111156113ba576113b9611f13565b5b6040519080825280602002602001820160405280156113f357816020015b6113e0611b0c565b8152602001906001900390816113d85790505b50905060005b60026000858152602001908152602001600020805490508110156115c25760026000858152602001908152602001600020818154811061143c5761143b612909565b5b90600052602060002090600502016040518060a00160405290816000820154815260200160018201805461146f90612794565b80601f016020809104026020016040519081016040528092919081815260200182805461149b90612794565b80156114e85780601f106114bd576101008083540402835291602001916114e8565b820191906000526020600020905b8154815290600101906020018083116114cb57829003601f168201915b505050505081526020016002820154815260200160038201805461150b90612794565b80601f016020809104026020016040519081016040528092919081815260200182805461153790612794565b80156115845780601f1061155957610100808354040283529160200191611584565b820191906000526020600020905b81548152906001019060200180831161156757829003601f168201915b505050505081526020016004820154815250508282815181106115aa576115a9612909565b5b602002602001018190525080806001019150506113f9565b5080915050919050565b600260038111156115e0576115df611ca0565b5b6001600084815260200190815260200160002060050160009054906101000a900460ff16600381111561161657611615611ca0565b5b03611656576040517f08c379a000000000000000000000000000000000000000000000000000000000815260040161164d906130c3565b60405180910390fd5b60038081111561166957611668611ca0565b5b6001600084815260200190815260200160002060050160009054906101000a900460ff16600381111561169f5761169e611ca0565b5b036116df576040517f08c379a00000000000000000000000000000000000000000000000000000000081526004016116d690613155565b60405180910390fd5b806001600084815260200190815260200160002060050160006101000a81548160ff0219169083600381111561171857611717611ca0565b5b02179055506002600381111561173157611730611ca0565b5b81600381111561174457611743611ca0565b5b036117af57600061175483611a2c565b9050806001600085815260200190815260200160002060060181905550827fc00d1f90091e272a8b9ec31ecc0f31c3f7866a4f7b7f8b6b2d4cc1bb84a64aab836040516117a19190613175565b60405180910390a2506117e8565b817fc00d1f90091e272a8b9ec31ecc0f31c3f7866a4f7b7f8b6b2d4cc1bb84a64aab826040516117df9190613175565b60405180910390a25b5050565b60606000805467ffffffffffffffff81111561180b5761180a611f13565b5b60405190808252806020026020018201604052801561184457816020015b611831611b3b565b8152602001906001900390816118295790505b50905060005b600054811015611a2457600160008281526020019081526020016000206040518060e00160405290816000820154815260200160018201805461188c90612794565b80601f01602080910402602001604051908101604052809291908181526020018280546118b890612794565b80156119055780601f106118da57610100808354040283529160200191611905565b820191906000526020600020905b8154815290600101906020018083116118e857829003601f168201915b5050505050815260200160028201805461191e90612794565b80601f016020809104026020016040519081016040528092919081815260200182805461194a90612794565b80156119975780601f1061196c57610100808354040283529160200191611997565b820191906000526020600020905b81548152906001019060200180831161197a57829003601f168201915b5050505050815260200160038201548152602001600482015481526020016005820160009054906101000a900460ff1660038111156119d9576119d8611ca0565b5b60038111156119eb576119ea611ca0565b5b8152602001600682015481525050828281518110611a0c57611a0b612909565b5b6020026020010181905250808060010191505061184a565b508091505090565b6000806000905060007fffffffffffffffffffffffffffffffffffffffffffffffffffffffffffffffff905060005b6002600086815260200190815260200160002080549050811015611b015782600260008781526020019081526020016000208281548110611a9f57611a9e612909565b5b9060005260206000209060050201600401541115611af457600260008681526020019081526020016000208181548110611adc57611adb612909565b5b90600052602060002090600502016004015492508091505b8080600101915050611a5b565b508092505050919050565b6040518060a0016040528060008152602001606081526020016000815260200160608152602001600081525090565b6040518060e00160405280600081526020016060815260200160608152602001600081526020016000815260200160006003811115611b7d57611b7c611ca0565b5b8152602001600081525090565b6000604051905090565b600080fd5b600080fd5b6000819050919050565b611bb181611b9e565b8114611bbc57600080fd5b50565b600081359050611bce81611ba8565b92915050565b600060208284031215611bea57611be9611b94565b5b6000611bf884828501611bbf565b91505092915050565b611c0a81611b9e565b82525050565b600081519050919050565b600082825260208201905092915050565b60005b83811015611c4a578082015181840152602081019050611c2f565b60008484015250505050565b6000601f19601f8301169050919050565b6000611c7282611c10565b611c7c8185611c1b565b9350611c8c818560208601611c2c565b611c9581611c56565b840191505092915050565b7f4e487b7100000000000000000000000000000000000000000000000000000000600052602160045260246000fd5b60048110611ce057611cdf611ca0565b5b50565b6000819050611cf182611ccf565b919050565b6000611d0182611ce3565b9050919050565b611d1181611cf6565b82525050565b600060e082019050611d2c600083018a611c01565b8181036020830152611d3e8189611c67565b90508181036040830152611d528188611c67565b9050611d616060830187611c01565b611d6e6080830186611c01565b611d7b60a0830185611d08565b611d8860c0830184611c01565b98975050505050505050565b600060a082019050611da96000830188611c01565b8181036020830152611dbb8187611c67565b9050611dca6040830186611c01565b8181036060830152611ddc8185611c67565b9050611deb6080830184611c01565b9695505050505050565b600073ffffffffffffffffffffffffffffffffffffffff82169050919050565b6000611e2082611df5565b9050919050565b611e3081611e15565b8114611e3b57600080fd5b50565b600081359050611e4d81611e27565b92915050565b60008060408385031215611e6a57611e69611b94565b5b6000611e7885828601611bbf565b9250506020611e8985828601611e3e565b9150509250929050565b60008115159050919050565b611ea881611e93565b82525050565b6000602082019050611ec36000830184611e9f565b92915050565b60008060408385031215611ee057611edf611b94565b5b6000611eee85828601611bbf565b9250506020611eff85828601611bbf565b9150509250929050565b600080fd5b600080fd5b7f4e487b7100000000000000000000000000000000000000000000000000000000600052604160045260246000fd5b611f4b82611c56565b810181811067ffffffffffffffff82111715611f6a57611f69611f13565b5b80604052505050565b6000611f7d611b8a565b9050611f898282611f42565b919050565b600067ffffffffffffffff821115611fa957611fa8611f13565b5b611fb282611c56565b9050602081019050919050565b82818337600083830152505050565b6000611fe1611fdc84611f8e565b611f73565b905082815260208101848484011115611ffd57611ffc611f0e565b5b612008848285611fbf565b509392505050565b600082601f83011261202557612024611f09565b5b8135612035848260208601611fce565b91505092915050565b600067ffffffffffffffff82111561205957612058611f13565b5b602082029050602081019050919050565b600080fd5b600061208261207d8461203e565b611f73565b905080838252602082019050602084028301858111156120a5576120a461206a565b5b835b818110156120ec57803567ffffffffffffffff8111156120ca576120c9611f09565b5b8086016120d78982612010565b855260208501945050506020810190506120a7565b5050509392505050565b600082601f83011261210b5761210a611f09565b5b813561211b84826020860161206f565b91505092915050565b600067ffffffffffffffff82111561213f5761213e611f13565b5b602082029050602081019050919050565b600061216361215e84612124565b611f73565b905080838252602082019050602084028301858111156121865761218561206a565b5b835b818110156121af578061219b8882611bbf565b845260208401935050602081019050612188565b5050509392505050565b600082601f8301126121ce576121cd611f09565b5b81356121de848260208601612150565b91505092915050565b600481106121f457600080fd5b50565b600081359050612206816121e7565b92915050565b600080600080600080600080610100898b03121561222d5761222c611b94565b5b600089013567ffffffffffffffff81111561224b5761224a611b99565b5b6122578b828c01612010565b985050602089013567ffffffffffffffff81111561227857612277611b99565b5b6122848b828c01612010565b97505060406122958b828c01611bbf565b96505060606122a68b828c01611bbf565b955050608089013567ffffffffffffffff8111156122c7576122c6611b99565b5b6122d38b828c016120f6565b94505060a089013567ffffffffffffffff8111156122f4576122f3611b99565b5b6123008b828c016121b9565b93505060c089013567ffffffffffffffff81111561232157612320611b99565b5b61232d8b828c016120f6565b92505060e061233e8b828c016121f7565b9150509295985092959890939650565b60006020820190506123636000830184611c01565b92915050565b600081519050919050565b600082825260208201905092915050565b6000819050602082019050919050565b61239e81611b9e565b82525050565b600082825260208201905092915050565b60006123c082611c10565b6123ca81856123a4565b93506123da818560208601611c2c565b6123e381611c56565b840191505092915050565b600060a0830160008301516124066000860182612395565b506020830151848203602086015261241e82826123b5565b91505060408301516124336040860182612395565b506060830151848203606086015261244b82826123b5565b91505060808301516124606080860182612395565b508091505092915050565b600061247783836123ee565b905092915050565b6000602082019050919050565b600061249782612369565b6124a18185612374565b9350836020820285016124b385612385565b8060005b858110156124ef57848403895281516124d0858261246b565b94506124db8361247f565b925060208a019950506001810190506124b7565b50829750879550505050505092915050565b6000602082019050818103600083015261251b818461248c565b905092915050565b6000806040838503121561253a57612539611b94565b5b600061254885828601611bbf565b9250506020612559858286016121f7565b9150509250929050565b600081519050919050565b600082825260208201905092915050565b6000819050602082019050919050565b61259881611cf6565b82525050565b600060e0830160008301516125b66000860182612395565b50602083015184820360208601526125ce82826123b5565b915050604083015184820360408601526125e882826123b5565b91505060608301516125fd6060860182612395565b5060808301516126106080860182612395565b5060a083015161262360a086018261258f565b5060c083015161263660c0860182612395565b508091505092915050565b600061264d838361259e565b905092915050565b6000602082019050919050565b600061266d82612563565b612677818561256e565b9350836020820285016126898561257f565b8060005b858110156126c557848403895281516126a68582612641565b94506126b183612655565b925060208a0199505060018101905061268d565b50829750879550505050505092915050565b600060208201905081810360008301526126f18184612662565b905092915050565b7f566f746163616f206e616f20656e636f6e747261646100000000000000000000600082015250565b600061272f601683611c1b565b915061273a826126f9565b602082019050919050565b6000602082019050818103600083015261275e81612722565b9050919050565b7f4e487b7100000000000000000000000000000000000000000000000000000000600052602260045260246000fd5b600060028204905060018216806127ac57607f821691505b6020821081036127bf576127be612765565b5b50919050565b7f566f746163616f206e616f2066696e616c697a61646100000000000000000000600082015250565b60006127fb601683611c1b565b9150612806826127c5565b602082019050919050565b6000602082019050818103600083015261282a816127ee565b9050919050565b7f4120766f746163616f20666f692063616e63656c616461000000000000000000600082015250565b6000612867601783611c1b565b915061287282612831565b602082019050919050565b600060208201905081810360008301526128968161285a565b9050919050565b7f4e656e68756d2076656e6365646f7220656e636f6e747261646f000000000000600082015250565b60006128d3601a83611c1b565b91506128de8261289d565b602082019050919050565b60006020820190508181036000830152612902816128c6565b9050919050565b7f4e487b7100000000000000000000000000000000000000000000000000000000600052603260045260246000fd5b7f41206461746120646520696e6963696f206465766520736572206e6f2066757460008201527f75726f0000000000000000000000000000000000000000000000000000000000602082015250565b6000612994602383611c1b565b915061299f82612938565b604082019050919050565b600060208201905081810360008301526129c381612987565b9050919050565b7f4120646174612064652066696d20646576652073657220706f73746572696f7260008201527f206120646520696e6963696f0000000000000000000000000000000000000000602082015250565b6000612a26602c83611c1b565b9150612a31826129ca565b604082019050919050565b60006020820190508181036000830152612a5581612a19565b9050919050565b7f4120766f746163616f2064657665207465722070656c6f206d656e6f7320646f60008201527f69732063616e64696461746f0000000000000000000000000000000000000000602082015250565b6000612ab8602c83611c1b565b9150612ac382612a5c565b604082019050919050565b60006020820190508181036000830152612ae781612aab565b9050919050565b7f4e487b7100000000000000000000000000000000000000000000000000000000600052601160045260246000fd5b6000612b2882611b9e565b91507fffffffffffffffffffffffffffffffffffffffffffffffffffffffffffffffff8203612b5a57612b59612aee565b5b600182019050919050565b60008190508160005260206000209050919050565b60006020601f8301049050919050565b600082821b905092915050565b600060088302612bc77fffffffffffffffffffffffffffffffffffffffffffffffffffffffffffffffff82612b8a565b612bd18683612b8a565b95508019841693508086168417925050509392505050565b6000819050919050565b6000612c0e612c09612c0484611b9e565b612be9565b611b9e565b9050919050565b6000819050919050565b612c2883612bf3565b612c3c612c3482612c15565b848454612b97565b825550505050565b600090565b612c51612c44565b612c5c818484612c1f565b505050565b5b81811015612c8057612c75600082612c49565b600181019050612c62565b5050565b601f821115612cc557612c9681612b65565b612c9f84612b7a565b81016020851015612cae578190505b612cc2612cba85612b7a565b830182612c61565b50505b505050565b600082821c905092915050565b6000612ce860001984600802612cca565b1980831691505092915050565b6000612d018383612cd7565b9150826002028217905092915050565b612d1a82611c10565b67ffffffffffffffff811115612d3357612d32611f13565b5b612d3d8254612794565b612d48828285612c84565b600060209050601f831160018114612d7b5760008415612d69578287015190505b612d738582612cf5565b865550612ddb565b601f198416612d8986612b65565b60005b82811015612db157848901518255600182019150602085019450602081019050612d8c565b86831015612dce5784890151612dca601f891682612cd7565b8355505b6001600288020188555050505b505050505050565b60006020820190508181036000830152612dfd8184611c67565b905092915050565b60006080820190508181036000830152612e1f8187611c67565b9050612e2e6020830186611c01565b612e3b6040830185611c01565b612e486060830184611d08565b95945050505050565b7f4573746120766f746163616f206e616f20657374612061746976610000000000600082015250565b6000612e87601b83611c1b565b9150612e9282612e51565b602082019050919050565b60006020820190508181036000830152612eb681612e7a565b9050919050565b7f566f6365206a6120766f746f75206e6573746120766f746163616f2100000000600082015250565b6000612ef3601c83611c1b565b9150612efe82612ebd565b602082019050919050565b60006020820190508181036000830152612f2281612ee6565b9050919050565b7f566f746163616f20666f726120646f20706572696f646f207065726d6974696460008201527f6f00000000000000000000000000000000000000000000000000000000000000602082015250565b6000612f85602183611c1b565b9150612f9082612f29565b604082019050919050565b60006020820190508181036000830152612fb481612f78565b9050919050565b7f43616e64696461746f20696e76616c69646f0000000000000000000000000000600082015250565b6000612ff1601283611c1b565b9150612ffc82612fbb565b602082019050919050565b6000602082019050818103600083015261302081612fe4565b9050919050565b61303081611e15565b82525050565b600060208201905061304b6000830184613027565b92915050565b7f4e616f20706f646520616c746572617220756d6120766f746163616f2066696e60008201527f616c697a61646100000000000000000000000000000000000000000000000000602082015250565b60006130ad602783611c1b565b91506130b882613051565b604082019050919050565b600060208201905081810360008301526130dc816130a0565b9050919050565b7f4e616f20706f646520616c746572617220756d6120766f746163616f2063616e60008201527f63656c6164610000000000000000000000000000000000000000000000000000602082015250565b600061313f602683611c1b565b915061314a826130e3565b604082019050919050565b6000602082019050818103600083015261316e81613132565b9050919050565b600060208201905061318a6000830184611d08565b9291505056fea2646970667358221220fdf8bd59d3d3b91786df46b549878f54a3fad8c01ee19e8097d793a5cc543b2a64736f6c634300081c0033",
  "linkReferences": {},
  "deployedLinkReferences": {}
}