{
  "_format": "hh-sol-artifact-1",
  "contractName": "Voteasy",
  "sourceName": "contracts/Voting.sol",
  "abi": [
    {
      "anonymous": false,
      "inputs": [
        {
          "indexed": true,
          "internalType": "uint256",
          "name": "votingId",
          "type": "uint256"
        },
        {
          "indexed": true,
          "internalType": "uint256",
          "name": "candidateId",
          "type": "uint256"
        },
        {
          "indexed": false,
          "internalType": "string",
          "name": "name",
          "type": "string"
        }
      ],
      "name": "CandidateAdded",
      "type": "event"
    },
    {
      "anonymous": false,
      "inputs": [
        {
          "indexed": false,
          "internalType": "uint256",
          "name": "votingId",
          "type": "uint256"
        },
        {
          "indexed": false,
          "internalType": "uint256",
          "name": "candidateId",
          "type": "uint256"
        }
      ],
      "name": "Voted",
      "type": "event"
    },
    {
      "anonymous": false,
      "inputs": [
        {
          "indexed": true,
          "internalType": "uint256",
          "name": "votingId",
          "type": "uint256"
        }
      ],
      "name": "VotingCanceled",
      "type": "event"
    },
    {
      "anonymous": false,
      "inputs": [
        {
          "indexed": true,
          "internalType": "uint256",
          "name": "id",
          "type": "uint256"
        },
        {
          "indexed": false,
          "internalType": "string",
          "name": "name",
          "type": "string"
        },
        {
          "indexed": false,
          "internalType": "uint256",
          "name": "startDate",
          "type": "uint256"
        },
        {
          "indexed": false,
          "internalType": "uint256",
          "name": "endDate",
          "type": "uint256"
        }
      ],
      "name": "VotingCreated",
      "type": "event"
    },
    {
      "anonymous": false,
      "inputs": [
        {
          "indexed": true,
          "internalType": "uint256",
          "name": "votingId",
          "type": "uint256"
        },
        {
          "indexed": false,
          "internalType": "uint256",
          "name": "winnerIndex",
          "type": "uint256"
        }
      ],
      "name": "VotingFinalized",
      "type": "event"
    },
    {
      "inputs": [
        {
          "internalType": "uint256",
          "name": "_votingId",
          "type": "uint256"
        },
        {
          "internalType": "bytes32",
          "name": "userIdHash",
          "type": "bytes32"
        }
      ],
      "name": "cancelVoting",
      "outputs": [],
      "stateMutability": "nonpayable",
      "type": "function"
    },
    {
      "inputs": [
        {
          "internalType": "uint256",
          "name": "",
          "type": "uint256"
        },
        {
          "internalType": "uint256",
          "name": "",
          "type": "uint256"
        }
      ],
      "name": "candidates",
      "outputs": [
        {
          "internalType": "uint256",
          "name": "id",
          "type": "uint256"
        },
        {
          "internalType": "string",
          "name": "name",
          "type": "string"
        },
        {
          "internalType": "uint256",
          "name": "number",
          "type": "uint256"
        },
        {
          "internalType": "string",
          "name": "party",
          "type": "string"
        },
        {
          "internalType": "uint256",
          "name": "votes",
          "type": "uint256"
        }
      ],
      "stateMutability": "view",
      "type": "function"
    },
    {
      "inputs": [
        {
          "internalType": "string",
          "name": "_name",
          "type": "string"
        },
        {
          "internalType": "string",
          "name": "_description",
          "type": "string"
        },
        {
          "internalType": "uint256",
          "name": "_startDate",
          "type": "uint256"
        },
        {
          "internalType": "uint256",
          "name": "_endDate",
          "type": "uint256"
        },
        {
          "internalType": "string[]",
          "name": "_candidateNames",
          "type": "string[]"
        },
        {
          "internalType": "uint256[]",
          "name": "_candidateNumbers",
          "type": "uint256[]"
        },
        {
          "internalType": "string[]",
          "name": "_candidateParties",
          "type": "string[]"
        },
        {
          "internalType": "bytes32",
          "name": "_creatorId",
          "type": "bytes32"
        }
      ],
      "name": "createVoting",
      "outputs": [],
      "stateMutability": "nonpayable",
      "type": "function"
    },
    {
      "inputs": [
        {
          "internalType": "uint256",
          "name": "_votingId",
          "type": "uint256"
        }
      ],
      "name": "finalizeVoting",
      "outputs": [],
      "stateMutability": "nonpayable",
      "type": "function"
    },
    {
      "inputs": [],
      "name": "getAllVotings",
      "outputs": [
        {
          "components": [
            {
              "internalType": "uint256",
              "name": "id",
              "type": "uint256"
            },
            {
              "internalType": "string",
              "name": "name",
              "type": "string"
            },
            {
              "internalType": "string",
              "name": "description",
              "type": "string"
            },
            {
              "internalType": "uint256",
              "name": "startDate",
              "type": "uint256"
            },
            {
              "internalType": "uint256",
              "name": "endDate",
              "type": "uint256"
            },
            {
              "internalType": "uint256",
              "name": "winnerIndex",
              "type": "uint256"
            },
            {
              "internalType": "bool",
              "name": "isCanceled",
              "type": "bool"
            },
            {
              "internalType": "bytes32",
              "name": "creatorId",
              "type": "bytes32"
            }
          ],
          "internalType": "struct Voteasy.Voting[]",
          "name": "",
          "type": "tuple[]"
        }
      ],
      "stateMutability": "view",
      "type": "function"
    },
    {
      "inputs": [
        {
          "internalType": "uint256",
          "name": "_candidateId",
          "type": "uint256"
        },
        {
          "internalType": "uint256",
          "name": "_votingId",
          "type": "uint256"
        }
      ],
      "name": "getCandidate",
      "outputs": [
        {
          "internalType": "uint256",
          "name": "id",
          "type": "uint256"
        },
        {
          "internalType": "string",
          "name": "name",
          "type": "string"
        },
        {
          "internalType": "uint256",
          "name": "number",
          "type": "uint256"
        },
        {
          "internalType": "string",
          "name": "party",
          "type": "string"
        },
        {
          "internalType": "uint256",
          "name": "votes",
          "type": "uint256"
        }
      ],
      "stateMutability": "view",
      "type": "function"
    },
    {
      "inputs": [
        {
          "internalType": "uint256",
          "name": "_votingId",
          "type": "uint256"
        }
      ],
      "name": "getCandidatesByVoting",
      "outputs": [
        {
          "components": [
            {
              "internalType": "uint256",
              "name": "id",
              "type": "uint256"
            },
            {
              "internalType": "string",
              "name": "name",
              "type": "string"
            },
            {
              "internalType": "uint256",
              "name": "number",
              "type": "uint256"
            },
            {
              "internalType": "string",
              "name": "party",
              "type": "string"
            },
            {
              "internalType": "uint256",
              "name": "votes",
              "type": "uint256"
            }
          ],
          "internalType": "struct Voteasy.Candidate[]",
          "name": "",
          "type": "tuple[]"
        }
      ],
      "stateMutability": "view",
      "type": "function"
    },
    {
      "inputs": [
        {
          "internalType": "uint256",
          "name": "_votingId",
          "type": "uint256"
        }
      ],
      "name": "getVoting",
      "outputs": [
        {
          "internalType": "uint256",
          "name": "id",
          "type": "uint256"
        },
        {
          "internalType": "string",
          "name": "name",
          "type": "string"
        },
        {
          "internalType": "string",
          "name": "description",
          "type": "string"
        },
        {
          "internalType": "uint256",
          "name": "startDate",
          "type": "uint256"
        },
        {
          "internalType": "uint256",
          "name": "endDate",
          "type": "uint256"
        },
        {
          "internalType": "uint256",
          "name": "winnerIndex",
          "type": "uint256"
        },
        {
          "internalType": "bool",
          "name": "isCanceled",
          "type": "bool"
        }
      ],
      "stateMutability": "view",
      "type": "function"
    },
    {
      "inputs": [
        {
          "internalType": "uint256",
          "name": "_votingId",
          "type": "uint256"
        }
      ],
      "name": "getWinner",
      "outputs": [
        {
          "internalType": "uint256",
          "name": "id",
          "type": "uint256"
        },
        {
          "internalType": "string",
          "name": "name",
          "type": "string"
        },
        {
          "internalType": "uint256",
          "name": "number",
          "type": "uint256"
        },
        {
          "internalType": "string",
          "name": "party",
          "type": "string"
        },
        {
          "internalType": "uint256",
          "name": "votes",
          "type": "uint256"
        }
      ],
      "stateMutability": "view",
      "type": "function"
    },
    {
      "inputs": [
        {
          "internalType": "uint256",
          "name": "",
          "type": "uint256"
        },
        {
          "internalType": "bytes32",
          "name": "",
          "type": "bytes32"
        }
      ],
      "name": "hasVotedByUser",
      "outputs": [
        {
          "internalType": "bool",
          "name": "",
          "type": "bool"
        }
      ],
      "stateMutability": "view",
      "type": "function"
    },
    {
      "inputs": [
        {
          "internalType": "uint256",
          "name": "_votingId",
          "type": "uint256"
        },
        {
          "internalType": "uint256",
          "name": "_candidateId",
          "type": "uint256"
        },
        {
          "internalType": "bytes32",
          "name": "userIdHash",
          "type": "bytes32"
        }
      ],
      "name": "vote",
      "outputs": [],
      "stateMutability": "nonpayable",
      "type": "function"
    },
    {
      "inputs": [],
      "name": "votingCount",
      "outputs": [
        {
          "internalType": "uint256",
          "name": "",
          "type": "uint256"
        }
      ],
      "stateMutability": "view",
      "type": "function"
    },
    {
      "inputs": [
        {
          "internalType": "uint256",
          "name": "",
          "type": "uint256"
        }
      ],
      "name": "votings",
      "outputs": [
        {
          "internalType": "uint256",
          "name": "id",
          "type": "uint256"
        },
        {
          "internalType": "string",
          "name": "name",
          "type": "string"
        },
        {
          "internalType": "string",
          "name": "description",
          "type": "string"
        },
        {
          "internalType": "uint256",
          "name": "startDate",
          "type": "uint256"
        },
        {
          "internalType": "uint256",
          "name": "endDate",
          "type": "uint256"
        },
        {
          "internalType": "uint256",
          "name": "winnerIndex",
          "type": "uint256"
        },
        {
          "internalType": "bool",
          "name": "isCanceled",
          "type": "bool"
        },
        {
          "internalType": "bytes32",
          "name": "creatorId",
          "type": "bytes32"
        }
      ],
      "stateMutability": "view",
      "type": "function"
    }
  ],
  "bytecode": "0x6080604052348015600f57600080fd5b50612e428061001f6000396000f3fe608060405234801561001057600080fd5b50600436106100cf5760003560e01c80638c881eeb1161008c578063b424ab8411610066578063b424ab841461024d578063b72c82631461026b578063db2c427d1461029b578063e4c41bb4146102cb576100cf565b80638c881eeb146101de578063a479664a146101fa578063a598d03c14610216576100cf565b80633afc7282146100d45780634129b2c91461010a578063494448311461013e5780634bd464481461015a57806360381e881461018e5780637de14242146101aa575b600080fd5b6100ee60048036038101906100e9919061194b565b6102e9565b6040516101019796959493929190611a32565b60405180910390f35b610124600480360381019061011f919061194b565b61046b565b604051610135959493929190611aaf565b60405180910390f35b6101586004803603810190610153919061194b565b6106f9565b005b610174600480360381019061016f9190611b10565b61085f565b604051610185959493929190611aaf565b60405180910390f35b6101a860048036038101906101a39190611b86565b610a1a565b005b6101c460048036038101906101bf9190611b10565b610b18565b6040516101d5959493929190611aaf565b60405180910390f35b6101f860048036038101906101f39190611bc6565b610c7b565b005b610214600480360381019061020f9190611ef7565b610ed5565b005b610230600480360381019061022b919061194b565b61125e565b604051610244989796959493929190612048565b60405180910390f35b6102556113c3565b60405161026291906120d4565b60405180910390f35b6102856004803603810190610280919061194b565b6113c9565b6040516102929190612287565b60405180910390f35b6102b560048036038101906102b09190611b86565b61157d565b6040516102c291906122a9565b60405180910390f35b6102d36115ac565b6040516102e0919061245b565b60405180910390f35b60006060806000806000806000600160008a81526020019081526020016000209050806000015481600101826002018360030154846004015485600501548660060160009054906101000a900460ff16858054610345906124ac565b80601f0160208091040260200160405190810160405280929190818152602001828054610371906124ac565b80156103be5780601f10610393576101008083540402835291602001916103be565b820191906000526020600020905b8154815290600101906020018083116103a157829003601f168201915b505050505095508480546103d1906124ac565b80601f01602080910402602001604051908101604052809291908181526020018280546103fd906124ac565b801561044a5780601f1061041f5761010080835404028352916020019161044a565b820191906000526020600020905b81548152906001019060200180831161042d57829003601f168201915b50505050509450975097509750975097509750975050919395979092949650565b60006060600060606000806001600088815260200190815260200160002090508060060160009054906101000a900460ff16156104dd576040517f08c379a00000000000000000000000000000000000000000000000000000000081526004016104d490612529565b60405180910390fd5b7fffffffffffffffffffffffffffffffffffffffffffffffffffffffffffffffff816005015403610543576040517f08c379a000000000000000000000000000000000000000000000000000000000815260040161053a90612595565b60405180910390fd5b60006002600089815260200190815260200160002082600501548154811061056e5761056d6125b5565b5b90600052602060002090600502016040518060a0016040529081600082015481526020016001820180546105a1906124ac565b80601f01602080910402602001604051908101604052809291908181526020018280546105cd906124ac565b801561061a5780601f106105ef5761010080835404028352916020019161061a565b820191906000526020600020905b8154815290600101906020018083116105fd57829003601f168201915b505050505081526020016002820154815260200160038201805461063d906124ac565b80601f0160208091040260200160405190810160405280929190818152602001828054610669906124ac565b80156106b65780601f1061068b576101008083540402835291602001916106b6565b820191906000526020600020905b81548152906001019060200180831161069957829003601f168201915b5050505050815260200160048201548152505090508060000151816020015182604001518360600151846080015196509650965096509650505091939590929450565b60006001600083815260200190815260200160002090508060060160009054906101000a900460ff1615610762576040517f08c379a000000000000000000000000000000000000000000000000000000000815260040161075990612529565b60405180910390fd5b806004015442116107a8576040517f08c379a000000000000000000000000000000000000000000000000000000000815260040161079f90612630565b60405180910390fd5b7fffffffffffffffffffffffffffffffffffffffffffffffffffffffffffffffff81600501541461080e576040517f08c379a00000000000000000000000000000000000000000000000000000000081526004016108059061269c565b60405180910390fd5b610817826117d7565b8160050181905550817fedc248d28b03d450d0783c6c919bc4a73b0f0a649695ed84eac21d4c279523f1826005015460405161085391906120d4565b60405180910390a25050565b600060606000606060008060026000888152602001908152602001600020888154811061088f5761088e6125b5565b5b90600052602060002090600502016040518060a0016040529081600082015481526020016001820180546108c2906124ac565b80601f01602080910402602001604051908101604052809291908181526020018280546108ee906124ac565b801561093b5780601f106109105761010080835404028352916020019161093b565b820191906000526020600020905b81548152906001019060200180831161091e57829003601f168201915b505050505081526020016002820154815260200160038201805461095e906124ac565b80601f016020809104026020016040519081016040528092919081815260200182805461098a906124ac565b80156109d75780601f106109ac576101008083540402835291602001916109d7565b820191906000526020600020905b8154815290600101906020018083116109ba57829003601f168201915b5050505050815260200160048201548152505090508060000151816020015182604001518360600151846080015195509550955095509550509295509295909350565b60006001600084815260200190815260200160002090508060060160009054906101000a900460ff1615610a83576040517f08c379a0000000000000000000000000000000000000000000000000000000008152600401610a7a90612708565b60405180910390fd5b81816007015414610ac9576040517f08c379a0000000000000000000000000000000000000000000000000000000008152600401610ac090612774565b60405180910390fd5b60018160060160006101000a81548160ff021916908315150217905550827fe0f8ec552b7da0e7db7dfa4655b29666c3c05b631f2180c6f1b6e497570a13c260405160405180910390a2505050565b60026020528160005260406000208181548110610b3457600080fd5b906000526020600020906005020160009150915050806000015490806001018054610b5e906124ac565b80601f0160208091040260200160405190810160405280929190818152602001828054610b8a906124ac565b8015610bd75780601f10610bac57610100808354040283529160200191610bd7565b820191906000526020600020905b815481529060010190602001808311610bba57829003601f168201915b505050505090806002015490806003018054610bf2906124ac565b80601f0160208091040260200160405190810160405280929190818152602001828054610c1e906124ac565b8015610c6b5780601f10610c4057610100808354040283529160200191610c6b565b820191906000526020600020905b815481529060010190602001808311610c4e57829003601f168201915b5050505050908060040154905085565b8260006001600083815260200190815260200160002090508060060160009054906101000a900460ff1615610ce5576040517f08c379a0000000000000000000000000000000000000000000000000000000008152600401610cdc90612529565b60405180910390fd5b80600301544210158015610cfd575080600401544211155b610d3c576040517f08c379a0000000000000000000000000000000000000000000000000000000008152600401610d33906127e0565b60405180910390fd5b60036000868152602001908152602001600020600084815260200190815260200160002060009054906101000a900460ff1615610dae576040517f08c379a0000000000000000000000000000000000000000000000000000000008152600401610da59061284c565b60405180910390fd5b60026000868152602001908152602001600020805490508410610e06576040517f08c379a0000000000000000000000000000000000000000000000000000000008152600401610dfd906128b8565b60405180910390fd5b6000600260008781526020019081526020016000208581548110610e2d57610e2c6125b5565b5b90600052602060002090600502019050806004016000815480929190610e5290612907565b9190505550600160036000888152602001908152602001600020600086815260200190815260200160002060006101000a81548160ff0219169083151502179055507f84a5508ca0d85b42a876e75a9126f3ae7b43617ce60b170bf8805d34630bc6548686604051610ec592919061294f565b60405180910390a1505050505050565b8585428211610f19576040517f08c379a0000000000000000000000000000000000000000000000000000000008152600401610f10906129ea565b60405180910390fd5b818111610f5b576040517f08c379a0000000000000000000000000000000000000000000000000000000008152600401610f5290612a7c565b60405180910390fd5b6001865111610f9f576040517f08c379a0000000000000000000000000000000000000000000000000000000008152600401610f9690612b0e565b60405180910390fd5b6000806000815480929190610fb390612907565b9190505590506040518061010001604052808281526020018c81526020018b81526020018a81526020018981526020017fffffffffffffffffffffffffffffffffffffffffffffffffffffffffffffffff815260200160001515815260200185815250600160008381526020019081526020016000206000820151816000015560208201518160010190816110489190612cda565b50604082015181600201908161105e9190612cda565b50606082015181600301556080820151816004015560a0820151816005015560c08201518160060160006101000a81548160ff02191690831515021790555060e0820151816007015590505060005b875181101561121457600260008381526020019081526020016000206040518060a001604052808381526020018a84815181106110ed576110ec6125b5565b5b6020026020010151815260200189848151811061110d5761110c6125b5565b5b6020026020010151815260200188848151811061112d5761112c6125b5565b5b60200260200101518152602001600081525090806001815401808255809150506001900390600052602060002090600502016000909190919091506000820151816000015560208201518160010190816111879190612cda565b506040820151816002015560608201518160030190816111a79190612cda565b5060808201518160040155505080827fed8911b3df733b7d5f75724158e54478ea12e30f49c9d31b5261879f5b76586f8a84815181106111ea576111e96125b5565b5b60200260200101516040516111ff9190612dac565b60405180910390a380806001019150506110ad565b50807f217aa0c75415c070cd53de117d7f04dea2944f6e6744a35eac2774425705cdfb8c8b8b60405161124993929190612dce565b60405180910390a25050505050505050505050565b6001602052806000526040600020600091509050806000015490806001018054611287906124ac565b80601f01602080910402602001604051908101604052809291908181526020018280546112b3906124ac565b80156113005780601f106112d557610100808354040283529160200191611300565b820191906000526020600020905b8154815290600101906020018083116112e357829003601f168201915b505050505090806002018054611315906124ac565b80601f0160208091040260200160405190810160405280929190818152602001828054611341906124ac565b801561138e5780601f106113635761010080835404028352916020019161138e565b820191906000526020600020905b81548152906001019060200180831161137157829003601f168201915b5050505050908060030154908060040154908060050154908060060160009054906101000a900460ff16908060070154905088565b60005481565b606060026000838152602001908152602001600020805480602002602001604051908101604052809291908181526020016000905b8282101561157257838290600052602060002090600502016040518060a00160405290816000820154815260200160018201805461143b906124ac565b80601f0160208091040260200160405190810160405280929190818152602001828054611467906124ac565b80156114b45780601f10611489576101008083540402835291602001916114b4565b820191906000526020600020905b81548152906001019060200180831161149757829003601f168201915b50505050508152602001600282015481526020016003820180546114d7906124ac565b80601f0160208091040260200160405190810160405280929190818152602001828054611503906124ac565b80156115505780601f1061152557610100808354040283529160200191611550565b820191906000526020600020905b81548152906001019060200180831161153357829003601f168201915b50505050508152602001600482015481525050815260200190600101906113fe565b505050509050919050565b60036020528160005260406000206020528060005260406000206000915091509054906101000a900460ff1681565b60606000805467ffffffffffffffff8111156115cb576115ca611c23565b5b60405190808252806020026020018201604052801561160457816020015b6115f16118b7565b8152602001906001900390816115e95790505b50905060005b6000548110156117cf5760016000828152602001908152602001600020604051806101000160405290816000820154815260200160018201805461164d906124ac565b80601f0160208091040260200160405190810160405280929190818152602001828054611679906124ac565b80156116c65780601f1061169b576101008083540402835291602001916116c6565b820191906000526020600020905b8154815290600101906020018083116116a957829003601f168201915b505050505081526020016002820180546116df906124ac565b80601f016020809104026020016040519081016040528092919081815260200182805461170b906124ac565b80156117585780601f1061172d57610100808354040283529160200191611758565b820191906000526020600020905b81548152906001019060200180831161173b57829003601f168201915b505050505081526020016003820154815260200160048201548152602001600582015481526020016006820160009054906101000a900460ff161515151581526020016007820154815250508282815181106117b7576117b66125b5565b5b6020026020010181905250808060010191505061160a565b508091505090565b6000806000905060007fffffffffffffffffffffffffffffffffffffffffffffffffffffffffffffffff905060005b60026000868152602001908152602001600020805490508110156118ac578260026000878152602001908152602001600020828154811061184a576118496125b5565b5b906000526020600020906005020160040154111561189f57600260008681526020019081526020016000208181548110611887576118866125b5565b5b90600052602060002090600502016004015492508091505b8080600101915050611806565b508092505050919050565b604051806101000160405280600081526020016060815260200160608152602001600081526020016000815260200160008152602001600015158152602001600080191681525090565b6000604051905090565b600080fd5b600080fd5b6000819050919050565b61192881611915565b811461193357600080fd5b50565b6000813590506119458161191f565b92915050565b6000602082840312156119615761196061190b565b5b600061196f84828501611936565b91505092915050565b61198181611915565b82525050565b600081519050919050565b600082825260208201905092915050565b60005b838110156119c15780820151818401526020810190506119a6565b60008484015250505050565b6000601f19601f8301169050919050565b60006119e982611987565b6119f38185611992565b9350611a038185602086016119a3565b611a0c816119cd565b840191505092915050565b60008115159050919050565b611a2c81611a17565b82525050565b600060e082019050611a47600083018a611978565b8181036020830152611a5981896119de565b90508181036040830152611a6d81886119de565b9050611a7c6060830187611978565b611a896080830186611978565b611a9660a0830185611978565b611aa360c0830184611a23565b98975050505050505050565b600060a082019050611ac46000830188611978565b8181036020830152611ad681876119de565b9050611ae56040830186611978565b8181036060830152611af781856119de565b9050611b066080830184611978565b9695505050505050565b60008060408385031215611b2757611b2661190b565b5b6000611b3585828601611936565b9250506020611b4685828601611936565b9150509250929050565b6000819050919050565b611b6381611b50565b8114611b6e57600080fd5b50565b600081359050611b8081611b5a565b92915050565b60008060408385031215611b9d57611b9c61190b565b5b6000611bab85828601611936565b9250506020611bbc85828601611b71565b9150509250929050565b600080600060608486031215611bdf57611bde61190b565b5b6000611bed86828701611936565b9350506020611bfe86828701611936565b9250506040611c0f86828701611b71565b9150509250925092565b600080fd5b600080fd5b7f4e487b7100000000000000000000000000000000000000000000000000000000600052604160045260246000fd5b611c5b826119cd565b810181811067ffffffffffffffff82111715611c7a57611c79611c23565b5b80604052505050565b6000611c8d611901565b9050611c998282611c52565b919050565b600067ffffffffffffffff821115611cb957611cb8611c23565b5b611cc2826119cd565b9050602081019050919050565b82818337600083830152505050565b6000611cf1611cec84611c9e565b611c83565b905082815260208101848484011115611d0d57611d0c611c1e565b5b611d18848285611ccf565b509392505050565b600082601f830112611d3557611d34611c19565b5b8135611d45848260208601611cde565b91505092915050565b600067ffffffffffffffff821115611d6957611d68611c23565b5b602082029050602081019050919050565b600080fd5b6000611d92611d8d84611d4e565b611c83565b90508083825260208201905060208402830185811115611db557611db4611d7a565b5b835b81811015611dfc57803567ffffffffffffffff811115611dda57611dd9611c19565b5b808601611de78982611d20565b85526020850194505050602081019050611db7565b5050509392505050565b600082601f830112611e1b57611e1a611c19565b5b8135611e2b848260208601611d7f565b91505092915050565b600067ffffffffffffffff821115611e4f57611e4e611c23565b5b602082029050602081019050919050565b6000611e73611e6e84611e34565b611c83565b90508083825260208201905060208402830185811115611e9657611e95611d7a565b5b835b81811015611ebf5780611eab8882611936565b845260208401935050602081019050611e98565b5050509392505050565b600082601f830112611ede57611edd611c19565b5b8135611eee848260208601611e60565b91505092915050565b600080600080600080600080610100898b031215611f1857611f1761190b565b5b600089013567ffffffffffffffff811115611f3657611f35611910565b5b611f428b828c01611d20565b985050602089013567ffffffffffffffff811115611f6357611f62611910565b5b611f6f8b828c01611d20565b9750506040611f808b828c01611936565b9650506060611f918b828c01611936565b955050608089013567ffffffffffffffff811115611fb257611fb1611910565b5b611fbe8b828c01611e06565b94505060a089013567ffffffffffffffff811115611fdf57611fde611910565b5b611feb8b828c01611ec9565b93505060c089013567ffffffffffffffff81111561200c5761200b611910565b5b6120188b828c01611e06565b92505060e06120298b828c01611b71565b9150509295985092959890939650565b61204281611b50565b82525050565b60006101008201905061205e600083018b611978565b8181036020830152612070818a6119de565b9050818103604083015261208481896119de565b90506120936060830188611978565b6120a06080830187611978565b6120ad60a0830186611978565b6120ba60c0830185611a23565b6120c760e0830184612039565b9998505050505050505050565b60006020820190506120e96000830184611978565b92915050565b600081519050919050565b600082825260208201905092915050565b6000819050602082019050919050565b61212481611915565b82525050565b600082825260208201905092915050565b600061214682611987565b612150818561212a565b93506121608185602086016119a3565b612169816119cd565b840191505092915050565b600060a08301600083015161218c600086018261211b565b50602083015184820360208601526121a4828261213b565b91505060408301516121b9604086018261211b565b50606083015184820360608601526121d1828261213b565b91505060808301516121e6608086018261211b565b508091505092915050565b60006121fd8383612174565b905092915050565b6000602082019050919050565b600061221d826120ef565b61222781856120fa565b9350836020820285016122398561210b565b8060005b85811015612275578484038952815161225685826121f1565b945061226183612205565b925060208a0199505060018101905061223d565b50829750879550505050505092915050565b600060208201905081810360008301526122a18184612212565b905092915050565b60006020820190506122be6000830184611a23565b92915050565b600081519050919050565b600082825260208201905092915050565b6000819050602082019050919050565b6122f981611a17565b82525050565b61230881611b50565b82525050565b600061010083016000830151612327600086018261211b565b506020830151848203602086015261233f828261213b565b91505060408301518482036040860152612359828261213b565b915050606083015161236e606086018261211b565b506080830151612381608086018261211b565b5060a083015161239460a086018261211b565b5060c08301516123a760c08601826122f0565b5060e08301516123ba60e08601826122ff565b508091505092915050565b60006123d1838361230e565b905092915050565b6000602082019050919050565b60006123f1826122c4565b6123fb81856122cf565b93508360208202850161240d856122e0565b8060005b85811015612449578484038952815161242a85826123c5565b9450612435836123d9565b925060208a01995050600181019050612411565b50829750879550505050505092915050565b6000602082019050818103600083015261247581846123e6565b905092915050565b7f4e487b7100000000000000000000000000000000000000000000000000000000600052602260045260246000fd5b600060028204905060018216806124c457607f821691505b6020821081036124d7576124d661247d565b5b50919050565b7f566f746163616f2063616e63656c616461000000000000000000000000000000600082015250565b6000612513601183611992565b915061251e826124dd565b602082019050919050565b6000602082019050818103600083015261254281612506565b9050919050565b7f566f746163616f206e616f2066696e616c697a61646100000000000000000000600082015250565b600061257f601683611992565b915061258a82612549565b602082019050919050565b600060208201905081810360008301526125ae81612572565b9050919050565b7f4e487b7100000000000000000000000000000000000000000000000000000000600052603260045260246000fd5b7f566f746163616f2061696e646120656d20616e64616d656e746f000000000000600082015250565b600061261a601a83611992565b9150612625826125e4565b602082019050919050565b600060208201905081810360008301526126498161260d565b9050919050565b7f566f746163616f206a612066696e616c697a6164610000000000000000000000600082015250565b6000612686601583611992565b915061269182612650565b602082019050919050565b600060208201905081810360008301526126b581612679565b9050919050565b7f566f746163616f206a612063616e63656c616461000000000000000000000000600082015250565b60006126f2601483611992565b91506126fd826126bc565b602082019050919050565b60006020820190508181036000830152612721816126e5565b9050919050565b7f4170656e6173206f2063726961646f7220706f64652063616e63656c61720000600082015250565b600061275e601e83611992565b915061276982612728565b602082019050919050565b6000602082019050818103600083015261278d81612751565b9050919050565b7f466f726120646f20706572696f646f20646520766f746163616f000000000000600082015250565b60006127ca601a83611992565b91506127d582612794565b602082019050919050565b600060208201905081810360008301526127f9816127bd565b9050919050565b7f566f6365206a6120766f746f75206e6573746120766f746163616f2100000000600082015250565b6000612836601c83611992565b915061284182612800565b602082019050919050565b6000602082019050818103600083015261286581612829565b9050919050565b7f43616e64696461746f20696e76616c69646f0000000000000000000000000000600082015250565b60006128a2601283611992565b91506128ad8261286c565b602082019050919050565b600060208201905081810360008301526128d181612895565b9050919050565b7f4e487b7100000000000000000000000000000000000000000000000000000000600052601160045260246000fd5b600061291282611915565b91507fffffffffffffffffffffffffffffffffffffffffffffffffffffffffffffffff8203612944576129436128d8565b5b600182019050919050565b60006040820190506129646000830185611978565b6129716020830184611978565b9392505050565b7f41206461746120646520696e6963696f206465766520736572206e6f2066757460008201527f75726f0000000000000000000000000000000000000000000000000000000000602082015250565b60006129d4602383611992565b91506129df82612978565b604082019050919050565b60006020820190508181036000830152612a03816129c7565b9050919050565b7f4120646174612064652066696d20646576652073657220706f73746572696f7260008201527f206120646520696e6963696f0000000000000000000000000000000000000000602082015250565b6000612a66602c83611992565b9150612a7182612a0a565b604082019050919050565b60006020820190508181036000830152612a9581612a59565b9050919050565b7f4120766f746163616f2064657665207465722070656c6f206d656e6f7320646f60008201527f69732063616e64696461746f7300000000000000000000000000000000000000602082015250565b6000612af8602d83611992565b9150612b0382612a9c565b604082019050919050565b60006020820190508181036000830152612b2781612aeb565b9050919050565b60008190508160005260206000209050919050565b60006020601f8301049050919050565b600082821b905092915050565b600060088302612b907fffffffffffffffffffffffffffffffffffffffffffffffffffffffffffffffff82612b53565b612b9a8683612b53565b95508019841693508086168417925050509392505050565b6000819050919050565b6000612bd7612bd2612bcd84611915565b612bb2565b611915565b9050919050565b6000819050919050565b612bf183612bbc565b612c05612bfd82612bde565b848454612b60565b825550505050565b600090565b612c1a612c0d565b612c25818484612be8565b505050565b5b81811015612c4957612c3e600082612c12565b600181019050612c2b565b5050565b601f821115612c8e57612c5f81612b2e565b612c6884612b43565b81016020851015612c77578190505b612c8b612c8385612b43565b830182612c2a565b50505b505050565b600082821c905092915050565b6000612cb160001984600802612c93565b1980831691505092915050565b6000612cca8383612ca0565b9150826002028217905092915050565b612ce382611987565b67ffffffffffffffff811115612cfc57612cfb611c23565b5b612d0682546124ac565b612d11828285612c4d565b600060209050601f831160018114612d445760008415612d32578287015190505b612d3c8582612cbe565b865550612da4565b601f198416612d5286612b2e565b60005b82811015612d7a57848901518255600182019150602085019450602081019050612d55565b86831015612d975784890151612d93601f891682612ca0565b8355505b6001600288020188555050505b505050505050565b60006020820190508181036000830152612dc681846119de565b905092915050565b60006060820190508181036000830152612de881866119de565b9050612df76020830185611978565b612e046040830184611978565b94935050505056fea2646970667358221220840a073aa90dac0a363c05fb4043884d256d45363271d27c0b0b634da6ab765764736f6c634300081c0033",
  "linkReferences": {},
  "deployedLinkReferences": {}
}